:020000040800F2
:100000006007002025130008810600088306000809
:10001000870600088B0600088F0600080000000015
:10002000000000000000000000000000930600082F
:1000300095060008000000009706000899060008D1
:100040003F1300083F1300083F1300083F13000848
:100050003F1300083F1300083F1300083F13000838
:100060003F1300083F1300083F1300083F13000828
:100070003F1300083F1300083F1300083F13000818
:100080003F1300083F1300083F1300083F13000808
:100090003F1300083F1300083F1300083F130008F8
:1000A0003F1300083F1300083F1300083F130008E8
:1000B0003F1300083F1300083F1300083F130008D8
:1000C0003F1300083F1300083F1300083F130008C8
:1000D0003F1300089B1200083F1300083F1300085D
:1000E0003F1300083F1300083F1300083F130008A8
:1000F0003F1300083F1300083F1300083F13000898
:100100003F1300083F1300083F1300083F13000887
:100110003F1300083F1300083F1300083F13000877
:100120003F1300083F1300083F1300083F13000867
:1001300000F002F800F03AF80AA090E8000C8244BF
:100140008344AAF10107DA4501D100F02FF8AFF29C
:10015000090EBAE80F0013F0010F18BFFB1A43F0A5
:1001600001031847A0290000C0290000103A24BF4D
:1001700078C878C1FAD8520724BF30C830C144BF0C
:1001800004680C607047000000230024002500264E
:10019000103A28BF78C1FBD8520728BF30C148BFEA
:1001A0000B6070471FB51FBD10B510BD02F077FC86
:1001B0001146FFF7F7FF00F009F802F095FC03B4D1
:1001C000FFF7F2FF03BC01F00DF800008AB0002435
:1001D00000250027FEA103C9CDE90801FEA103C93E
:1001E000CDE90601FEA103C9CDE90401FE4903C919
:1001F000CDE90201002600F02BFF00F089FF00F09E
:100200008DFB00F005FE00F035FD102308220721CC
:100210000020009600F09EFB1023082207210020FA
:10022000009600F05BFC24E20521002000F09AFD1E
:10023000002000F035FD07468DF827701021EB48AF
:1002400001F0F1F9002843D10A2000F09EFF1021AF
:10025000E64801F0E8F90028E5D10022E44908A8C1
:1002600000F0E0FB0A2000F090FF0022E14908A81E
:1002700000F09DFC0A2000F088FF0120DE490860A4
:10028000DE49C1F88001642000F07FFF0020DA49D8
:100290000860DA49C1F88001642000F076FF01208F
:1002A000D5490860D549C1F88001642000F06DFF90
:1002B0000020D1490860D149C1F88001642000F0D4
:1002C00064FF0120CC490860CC49C1F88001D0E12D
:1002D0002021C64801F0A7F9002843D10A2000F0E8
:1002E00054FF2021C14801F09EF900289BD1002233
:1002F000BF4906A800F096FB0A2000F046FF002246
:10030000BC4906A800F053FC0A2000F03EFF012083
:10031000B9490860B949C1F88001322000F035FFC1
:100320000020B5490860B549C1F88001322000F0CD
:100330002CFF0120B0490860B049C1F8800132208B
:1003400000F023FF0020AC490860AC49C1F88001EF
:10035000322000F01AFF0120A7490860A749C1F820
:10036000800186E14021A14801F05DF9002843D1D8
:100370000A2000F00AFF40219C4801F054F90028AF
:10038000A5D100229A4904A800F04CFB0A2000F0F5
:10039000FCFE0022974904A800F009FC0A2000F0A6
:1003A000F4FE0120944908609449C1F8800132208C
:1003B00000F0EBFE0020904908609049C1F88001F0
:1003C000322000F0E2FE01208B4908608B49C1F821
:1003D0008001322000F0D9FE00208749086087495B
:1003E000C1F88001322000F0D0FE0120824908606F
:1003F0008249C1F880013CE1002437E10A2000F085
:10040000C4FE642C38D101208DF8090000227849FF
:1004100002A800F007FB052000F0B7FE0022754996
:1004200002A800F0C4FB052000F0AFFE02208DF80A
:10043000090000226E4902A800F0F4FA052000F03D
:10044000A4FE00226B4902A800F0B1FB052000F0D9
:100450009CFE03208DF809000022654902A800F0E7
:10046000E1FA052000F091FE0022624902A800F0A6
:100470009EFB052000F089FE0025F2E010215B487C
:1004800001F0D1F800283FD10A2000F07EFE1021B3
:10049000564801F0C8F8002835D10022544908A870
:1004A00000F0C0FA0A2000F070FE0022514908A8AE
:1004B00000F07DFB4FF4FA7000F067FE4FF4FA7025
:1004C00000F063FE01204C4908604C49C1F88001EE
:1004D000642000F05AFE0020474908604749C1F8EF
:1004E0008001642000F051FE012043490860434927
:1004F000C1F88001642000F048FE00203E490860F9
:100500003E49C1F88001AAE02021384801F08BF86B
:10051000002842D1052000F038FE2021334801F0A8
:1005200082F80028EFD10A2000F02FFE0022304987
:1005300006A800F077FA0A2000F027FE00222D49D5
:1005400006A800F034FB4FF4FA7000F01EFE4FF4E2
:10055000FA7000F01AFE0120274908602749C1F807
:100560008001642000F011FE002023490860234927
:10057000C1F88001642000F008FE01201E490860D7
:100580001E49C1F88001642000F0FFFD00201A49D7
:1005900008601A49C1F8800161E04021134801F068
:1005A00042F800285BD1052000F0EFFD40210F4804
:1005B00001F039F8F0BB0A2000F0E7FD00220C49F9
:1005C00004A800F02FFA0A2000F0DFFD002217E057
:1005D0005001010100000000500202020000000072
:1005E0005003030300000000FC2A0008000801403B
:1005F000070000A0070000B0848121420080214252
:100600001C4904A800F0D3FA4FF4FA7000F0BDFDC5
:100610004FF4FA7000F0B9FD01201749086017493E
:10062000C1F88001642000F0B0FD0020124908608C
:10063000124900E013E0C1F88001642000F0A5FD3C
:1006400001200D4908600D49C1F88001642000F0C7
:100650009CFD0020084908600849C1F88001681C19
:10066000C5B2C82DFFF60AAF601CC4B2652CFFF6F8
:10067000C5AED9E5070000B0848121420080214247
:10068000704700BFFEE700BFFEE700BFFEE700BF08
:10069000FEE7704770477047704700000CB50020B8
:1006A000019000909248006840F4803090490860C2
:1006B00000BF8F48006800F4003000900198401C93
:1006C0000190009818B90198B0F5A06FF1D1884851
:1006D000006800F4003010B10120009001E000201B
:1006E0000090009801285CD18248006840F010001A
:1006F000804908600846006820F00300086008464A
:10070000006840F002000860794840687849486015
:100710000846406848600846406840F48060486089
:100720000846C06A744908407149C8620846C06AF0
:10073000724908436E49C8620846006840F080600C
:10074000086000BF6A48006800F000600028F9D027
:100750006748406820F47C10654948600846406856
:1007600040F4E81048600846006840F08070086077
:1007700000BF5F48006800F000700028F9D05C48B6
:10078000406820F003005A4948600846406840F03D
:100790000200486000BF5648406800F00C0008287E
:1007A000F9D10CBD10B5FFF779FF10BD10B5504859
:1007B000006840F001004E49086008464068504912
:1007C00008404B494860084600684E49084048497F
:1007D00008600846006820F48020086008464068E9
:1007E00020F4FE0048600846006820F0A050086031
:1007F0004FF47F0088600020C862FFF7D3FF4FF0FE
:1008000000604149086010BDF0B5002100200023C0
:100810000024002200250026354F7F6807F00C01D8
:1008200021B1042908D008294BD10BE0374FDFF85C
:10083000E0C0CCF800704AE0344FDFF8D4C0CCF808
:10084000007044E02A4F7F6807F47010284F7F68DB
:1008500007F48033800C0D2801D0801C00E00620B6
:1008600033B92C4F4743DFF8A8C0CCF8007027E01D
:100870001F4FFF6A07F480341D4FFF6A07F00F0710
:100880007A1C44B9214FB7FBF2F74743DFF880C029
:10089000CCF8007014E0164FFF6AC7F303177D1CF5
:1008A000134FFF6AC7F30327BE1C184FB7FBF5F7BA
:1008B0007743B7FBF2F74743DFF854C0CCF800703A
:1008C00005E0124FDFF848C0CCF8007000BF00BF51
:1008D000074F7F68C7F30317DFF83CC01CF8071009
:1008E0000B4F3F68CF40DFF828C0CCF80070F0BD58
:1008F000001002400020024000F0FEFF140801003A
:100900000000FFF0FFFFF6FE08ED00E000127A00A5
:100910000000002000093D000400002008B501216E
:10092000082001F056F90320ADF800008DF8020010
:1009300010208DF803006946054800F0E1FD012113
:10094000034800F08CFE0221014800F088FE08BD3B
:10095000000C01402DE9F04188B004460D461646D2
:100960001F46DDF838800121042001F032F9012111
:10097000480601F03BF90121084601F02AF94FF43D
:100980008050ADF81C0003208DF81E0018208DF853
:100990001F0007A94F4800F0B3FD4FF40060ADF809
:1009A0001C0048208DF81F0007A94A4800F0A8FD48
:1009B00000208DF816008DF817008DF81800012022
:1009C0008DF8190000208DF81A008DF81B008DF8A5
:1009D00012808DF813408DF814608DF81550ADF825
:1009E000107004A93C4801F072F900208DF80A004B
:1009F0008DF80B0001208DF80C000020ADF80000F0
:100A0000ADF80200ADF80400ADF80600ADF808003E
:100A100001208DF80D00684601F0E3F9002008B0D0
:100A2000BDE8F0812DE9F04186B006460F469046BC
:100A3000002424200190029704208DF80C0008F077
:100A4000FF008DF80D0008208DF80E0000BF05E0B6
:100A5000315D0DF10F000155601C84B2082CF7DBED
:100A600001A91D4801F0ACFA0546002401E0601C14
:100A700084B22946184801F03BFB18B940F6FF70D4
:100A80008442F4DB40F6FF70844203DB002006B0B2
:100A9000BDE8F0810120FAE770B586B005460E4644
:100AA00000210D4801F004FC10B9002006B070BD13
:100AB00001AA0021084801F078FB002404E00DF1B0
:100AC0000F00005D2855641C082CF8D3029E9DF889
:100AD0000E00EBE700080140006400402DE9F04102
:100AE00088B004460D4616461F46DDF838800121C1
:100AF000082001F06EF80121880601F077F8012145
:100B0000084601F066F84FF40050ADF81C000320D1
:100B10008DF81E0018208DF81F0007A9534800F01B
:100B2000EFFC4FF48050ADF81C0048208DF81F00FA
:100B300007A94E4800F0E4FC00208DF816008DF85F
:100B400017008DF8180001208DF8190000208DF88D
:100B50001A008DF81B008DF812808DF813408DF867
:100B600014608DF81550ADF8107004A9404801F0DC
:100B7000AEF80E208DF80A0000208DF80B00012041
:100B80008DF80C000020ADF80000ADF80200ADF8C3
:100B90000400ADF80600ADF8080001208DF80D0046
:100BA000684601F01EF9002008B0BDE8F0812DE98B
:100BB000F04186B006460F4690460024252001905D
:100BC000029704208DF80C0008F0FF008DF80D004E
:100BD00008208DF80E0000BF05E0315D0DF10F001B
:100BE0000155601C84B2082CF7DB01A9204801F0F4
:100BF000E7F90546002401E0601C84B229461C4840
:100C000001F076FA18B940F6FF708442F4DB40F642
:100C1000FF70844203DB002006B0BDE8F0810120B4
:100C2000FAE770B586B005460E460021104801F07F
:100C30003FFB10B9002006B070BD01AA00210C488E
:100C400001F0B3FA002404E00DF10F00005D285517
:100C5000641C082CF8D3002402E002983055641C70
:100C6000042CFAD39DF80E00E5E70000000C0140CB
:100C70000068004008B50121042000F0AAFF7020A0
:100C8000ADF8000048208DF803006946034800F0E5
:100C900037FC7021014800F0E0FC08BD000801406D
:100CA00070B50446002600F0E9F82546E11704EB8C
:100CB00011610912A02202EB4101C8B200F06DF9E6
:100CC00000F044F9E11704EB11610912A4EB0121D2
:100CD000C8B200F062F900F039F900F0CFF8A120B5
:100CE00000F05BF900F032F9002000F083F90646CD
:100CF00000F012F900F0DCF8304670BD70B5044623
:100D0000002500F0BBF82646E11704EB116109123B
:100D1000A02202EB4101C8B200F03FF900F016F941
:100D2000E11704EB11610912A4EB0121C8B200F034
:100D300034F900F00BF900F0A1F8A12000F02DF932
:100D400000F004F9012000F055F905464FF6FF7058
:100D500000EA0525002000F04DF9054300F0A8F851
:100D6000284670BD70B504460E4600F087F825464B
:100D7000E11704EB11610912A02202EB4101C8B294
:100D800000F00BF900F0E2F8E11704EB1161091231
:100D9000A4EB0121C8B200F000F900F0D7F830460A
:100DA00000F0FBF800F0D2F800F082F80A2000F022
:100DB000ECF970BD70B504460D4600F05FF82646AC
:100DC000E11704EB11610912A02202EB4101C8B244
:100DD00000F0E3F800F0BAF8E11704EB1161091232
:100DE000A4EB0121C8B200F0D8F800F0AFF8281247
:100DF00000F0D3F800F0AAF8E8B200F0CEF800F066
:100E0000A5F800F055F80A2000F0BFF970BD000009
:100E100008B50121082000F0DCFEC020ADF800007C
:100E200003208DF8020010208DF8030069468748E2
:100E300000F066FB4021854800F00FFC80218348CC
:100E400000F00BFC08BD08B58020ADF800000320C1
:100E50008DF8020010208DF8030069467B4800F0F1
:100E60004FFB08BD08B58020ADF8000048208DF884
:100E700003006946754800F043FB08BD10B5FFF755
:100E8000E2FF8021714800F0E8FB40216F4800F04C
:100E9000E4FB052000F055F980216C4800F0DFFBF1
:100EA000062000F04EF94021684800F0D8FB10BD44
:100EB00010B5FFF7C8FF4021644800F0D0FB802147
:100EC000624800F0CCFB4021604800F0C6FB0620E1
:100ED00000F037F980215D4800F0BFFB062000F0EC
:100EE00030F910BD10B54021584800F0B8FBFFF7AD
:100EF000AAFF8021554800F0B2FB022000F021F942
:100F00004021524800F0A9FB052000F01AF94021C9
:100F10004E4800F0A4FB10BD10B540214B4800F036
:100F20009EFBFFF790FF8021484800F096FB0220CF
:100F300000F007F94021454800F08FFB052000F044
:100F400000F94021414800F08AFB10BD10B5002493
:100F5000FFF788FF80213D4800F07FFB012000F073
:100F6000F0F84021394800F078FB012000F0E9F862
:100F700007E0601CC4B2FA2C03DDFFF799FF0120E3
:100F800010BD8021314800F04EFB0028F1D14021F6
:100F90002E4800F064FB0020F2E770B504460025FF
:100FA000FFF751FF4021294800F059FB00BF1EE028
:100FB00004F08000002804DD8021244800F04DFB6F
:100FC00003E08021214800F04AFB6006040E402126
:100FD0001E4800F042FB022000F0B3F840211B48FD
:100FE00000F03DFB022000F0ACF8681CC5B2082DF3
:100FF000DEDB70BD70B5054600260024FFF732FF2A
:1010000000BF18E04021114800F029FB022000F049
:1010100098F840210D4800F020FB6006040E802166
:101020000A4800F000FB08B1601CC4B2012000F0C7
:1010300088F8701CC6B2082EE4DB15B9FFF76CFF08
:1010400001E0FFF74FFF204670BD0000000C01409B
:1010500000B587B00121042000F0BBFD0121880309
:1010600000F0B7FD0121084600F0B3FD4FF4007019
:10107000ADF8180003208DF81A0018208DF81B0019
:1010800006A9214800F03CFA4FF48060ADF8180042
:1010900004208DF81B0006A91B4800F031FA4FF41C
:1010A000E13002900020ADF80C00ADF80E00ADF874
:1010B0001000ADF814000C20ADF8120002A913487E
:1010C00001F027FB0121114801F0AFFB012240F2A2
:1010D00025510E4801F0B5FB40210C4801F08DFC74
:1010E0004FF4C06000F03EF925208DF80400002088
:1010F0008DF805008DF8060001208DF8070001A885
:1011000000F035F907B000BD00080140003801408B
:1011100010B56FF0040000F074F92E4800682E49F5
:10112000B0FBF1F02D4908700846007800EB400153
:10113000C1EBC0104FF6FF7101EAC00028490880DA
:1011400010BD0146254A12784A434FF0E0235A6108
:1011500000229A611A46126942F001021A6100BF28
:101160004FF0E022106900F001021AB100F4803261
:10117000002AF5D04FF0E022126922F001024FF070
:10118000E0231A6100229A6170470146144A1288CE
:101190004A434FF0E0235A6100229A611A461269CD
:1011A00042F001021A6100BF4FF0E022106900F026
:1011B00001021AB100F48032002AF5D04FF0E0228B
:1011C000126922F001024FF0E0231A6100229A61B5
:1011D000704700000000002000127A001400002078
:1011E00016000020014600BF704700BF494A128820
:1011F00002F04002002AF9D0C2B2464B1B1D1A80F1
:10120000704710B586B00446012144F2040000F096
:10121000E0FC4FF40070ADF8140003208DF81600C8
:1012200018208DF8170005A93B4800F069F94FF424
:101230008060ADF8140004208DF8170005A9364829
:1012400000F05EF925208DF8000003208DF80100E4
:101250008DF8020001208DF80300684600F087F841
:1012600001940020ADF80800ADF80A00ADF80C00BC
:10127000ADF810000C20ADF80E0001A9254801F0D2
:1012800048FA012240F22551224801F0DAFA012100
:10129000204801F0CAFA06B010BD10B540F2255141
:1012A0001C4801F0B3FB10B31A4801F02FFBC4B285
:1012B0001A48008800F40040C8B91848008800F4B3
:1012C000804060B10A2C03D000201449088020E03F
:1012D0001248008840F400401049088019E00D2CA5
:1012E00006D10E48008840F480400C49088010E088
:1012F0000A480088C0F30D0009490C5407480088CB
:10130000401C0649088008460088C72801DD0020E7
:10131000088010BD00380140000801401C0000207A
:10132000340000200948804709480047FEE7FEE7EF
:10133000FEE7FEE7FEE7FEE7FEE7FEE7FEE7FEE785
:1013400004480549054A064B70470000AD070008F0
:1013500031010008600100206007002060030020C8
:101360006003002031490143314A1160704770B574
:10137000002100230F22C47804B32D4C246804F408
:10138000E064C4F5E064210AC1F10403CA40447872
:1013900004FA03F18478144021430901254C0678AE
:1013A000A155047804F01F050124AC4005786D11A7
:1013B000AD0005F1E025C5F8004109E0047804F02E
:1013C0001F050124AC401C4D0678761145F82640D7
:1013D00070BD1A4A0A400243154B1B1F1A60704722
:1013E00039B1134A121D12680243114B1B1D1A60BA
:1013F00006E00F4A121D126882430D4B1B1D1A6036
:101400007047042808D14FF0E021096941F0040138
:101410004FF0E022116107E04FF0E021096921F06F
:1014200004014FF0E0221161704700000000FA054E
:101430000CED00E000E400E080E100E080FFFF1F31
:1014400010B50446CC48844208D10121042000F0A4
:10145000E7FB0021042000F0E3FB46E0C74884429C
:1014600008D10121082000F0DBFB0021082000F05A
:10147000D7FB3AE0C248844208D10121102000F095
:10148000CFFB0021102000F0CBFB2EE0BD488442B2
:1014900008D10121202000F0C3FB0021202000F012
:1014A000BFFB22E0B848844208D10121402000F06F
:1014B000B7FB0021402000F0B3FB16E0B3488442A4
:1014C00008D10121802000F0ABFB0021802000F03A
:1014D000A7FB0AE0AE48844207D10121801500F045
:1014E0009FFB0021A01500F09BFB10BD10B5012152
:1014F000084600F095FB0021012000F091FB10BD93
:101500002DE9F0410246002500260020002300249A
:10151000002791F803C00CF00F0591F803C00CF000
:10152000100CBCF1000F03D091F802C04CEA050585
:1015300091F800C0BCF1000F31D0146800202BE0FE
:101540004FF0010C0CFA00F3B1F800C00CEA0306EE
:101550009E4220D183004FF00F0C0CFA03F7BC43DE
:1015600005FA03FC4CEA040491F803C0BCF1280F0F
:1015700006D14FF0010C0CFA00FCC2F814C00AE0CE
:1015800091F803C0BCF1480F05D14FF0010C0CFAE3
:1015900000FCC2F810C0401C0828D1D31460B1F878
:1015A00000C0BCF1FF0F34DD546800202EE000F1D4
:1015B000080C4FF0010808FA0CF3B1F800C00CEA6F
:1015C00003069E4221D183004FF00F0C0CFA03F763
:1015D000BC4305FA03FC4CEA040491F803C0BCF1D7
:1015E000280F05D100F1080C08FA0CF8C2F8148095
:1015F00091F803C0BCF1480F07D100F1080C4FF07F
:10160000010808FA0CF8C2F81080401C0828CED354
:101610005460BDE8F0814FF6FF71018002218170B6
:101620000421C17070470246002093680B400BB143
:10163000012000E0002070470146886880B27047B2
:1016400002460020D3680B400BB1012000E00020CF
:1016500070470146C86880B27047016170474161B8
:1016600070470AB1016100E041617047C160704795
:101670004FF480320A4382618161826182698269AA
:10168000704702460020434B18684FF6807318409D
:1016900040EA021008433F4B186070473E49C8615A
:1016A0007047F0B50A46002300240021002500F011
:1016B0000046B6F1004F02D1364EF16901E0354ED9
:1016C0007168C0F3034583B200F44016B6F5401FBD
:1016D00008D121F070612F4E766826F070662D4F8C
:1016E0007E6012E000F48016B6F5801F06D1032656
:1016F00006FA05F4A14341F0706106E0460D36019B
:1017000003FA06F6B14341F0706122B1460D36018D
:1017100003FA06F6314300F00046B6F1004F02D15D
:101720001C4EF16101E01B4E7160F0BD30B500222E
:101730008B071C0F0F2303FA04F2164B08338C108F
:1017400053F824309343134C08348D1044F825305B
:1017500023468C1053F824308C07240F00FA04F42D
:1017600023430C4C08348D1044F8253030BD0A4911
:10177000DC3108607047000000080140000C0140A7
:10178000001001400014014000180140001C0140FD
:10179000002001400000014000002042FB4800689A
:1017A00040F00100F949086008464068F8490840DF
:1017B000F649486008460068F6490840F349086061
:1017C0000846006820F4802008600846406820F43D
:1017D000FE0048600846006820F0A05008604FF402
:1017E0007F0088600020C8627047E849096821F4DA
:1017F0008031E64A11601146096821F480211160A8
:10180000B0F5803F03D0B0F5802F0ED106E0DF4960
:10181000096841F48031DD4A116007E0DB4909685D
:1018200041F4A021D94A116000E000BF00BF704719
:1018300010B501460022002300204A11012A02D1DE
:10184000D24C236806E0022A02D1D04C236A01E080
:10185000CE4C636A01F01F02012494401C400CB17D
:10186000012000E0002010BD38B5002000900024C9
:10187000002500BF3120FFF7DBFF05460098401C24
:1018800000900098B0F5A06F01D0002DF2D031206B
:10189000FFF7CEFF08B1012400E00024204638BD48
:1018A00001460020B94A106820F0F80040EAC10063
:1018B00010607047B8490860704702460020B34B7B
:1018C000586820F4741042EA01031843AF4B586083
:1018D0007047B1490866704702460020AB4BD86A92
:1018E000AE4B184042EA01031843A84BD862704738
:1018F00001460020A54AD06A20F0F0000843D062DB
:10190000704701460020A14AD06A20F47060084365
:10191000D0627047A04988667047014600209B4A04
:10192000D06A20F470400843D06270479A49086733
:10193000704701460020954A506820F00300084394
:10194000506070479148406800F00C0070470146B5
:1019500000208E4A506820F0F00008435060704725
:1019600001460020894A506820F4E0600843506036
:10197000704701460020854A506820F4605040EAD4
:10198000C1005060704729B1804A527A02437F4BB0
:101990005A7204E07D4A527A82437C4B5A727047F5
:1019A0007D49D8310860704701460020774A506869
:1019B00020F4404008435060704779490860704700
:1019C0007749091D086070470021704A2032117064
:1019D0006E4A82F82010012802D004280AD104E0BF
:1019E00001216A4A2032117005E00521674A203240
:1019F000117000E000BF00BF70476A49086070477F
:101A00006249096A0143614A116270476549443974
:101A1000086070472DE9F0410021002200250023D5
:101A20000026002400278C46DFF86081D8F8048067
:101A300008F00C0121B1042907D0082959D109E087
:101A4000DFF86481C0F8008058E0DFF85C81C0F8FE
:101A5000008053E0DFF83481D8F8048008F4701275
:101A6000DFF82881D8F8048008F48035920C0D2A1C
:101A700001D0921C00E0062235B9DFF8308102FB6C
:101A800008F8C0F8008033E0DFF80081D8F82C8037
:101A900008F48036DFF8F480D8F82C8008F00F08BE
:101AA00008F1010446B9DFF80081B8FBF4F808FB3F
:101AB00002F8C0F800801BE0DFF8D080D8F82C8056
:101AC000C8F3031808F10107DFF8C080D8F82C80AC
:101AD000C8F3032808F1020CDFF8CC80B8FBF7F854
:101AE00008FB0CF8B8FBF4F808FB02F8C0F800801B
:101AF00004E0DFF8B480C0F8008000BF00BFDFF86A
:101B00008C80D8F8048008F0F0010909DFF8A08083
:101B100018F80130D0F8008028FA03F8C0F80480E3
:101B2000DFF86880D8F8048008F4E061090ADFF87B
:101B3000808018F80130D0F8048028FA03F8C0F843
:101B40000880DFF84880D8F8048008F46051C90A9A
:101B5000DFF85C8018F80130D0F8048028FA03F828
:101B6000C0F80C80DFF82480D8F8048008F44041E5
:101B7000890BDFF8408018F80130D0F80C80B8FBF2
:101B8000F3F8C0F81080BDE8F081000000100240BA
:101B90000000FFF0FFFFF6FE00004242F0FFFEFFF4
:101BA000C40542428004424200127A0000093D000E
:101BB0001E0000202E00002029B1354A5269024340
:101BC000334B5A6104E0324A52698243304B5A61C6
:101BD000704729B12E4A926902432D4B9A6104E065
:101BE0002B4A926982432A4B9A61704729B1284A4D
:101BF000D2690243264BDA6104E0254AD269824366
:101C0000234BDA61704729B1214A926A0243204B83
:101C10009A6204E01E4A926A82431D4B9A627047A0
:101C200029B11B4AD2680243194BDA6004E0184A12
:101C3000D2688243164BDA60704729B1144A1269A0
:101C40000243134B1A6104E0114A12698243104B9C
:101C50001A6170470F49086070470F49C8647047A0
:101C60000B49C87170470A48406A40F080700849C3
:101C70004862704701460020054A92680A400AB14E
:101C8000012000E000207047014988727047000081
:101C900000100240400442420000424210B5044697
:101CA000FE48844209D101214806FFF7C6FF002102
:101CB0004FF00070FFF7C1FF08E001218806FFF731
:101CC000BCFF00214FF08060FFF7B7FF10BD30B5BB
:101CD000024600200023146824F0020414601468F3
:101CE00044F00104146000E05B1C546804F001043B
:101CF0001CB94FF6FF74A342F6D1546804F00104F6
:101D00000CB900206CE08C79012C04D1146844F0EB
:101D10008004146003E0146824F080041460CC791B
:101D2000012C04D1146844F04004146003E01468EA
:101D300024F0400414600C7A012C04D1146844F09F
:101D40002004146003E0146824F0200414604C7A2A
:101D5000012C04D1146844F01004146003E01468EA
:101D600024F0100414608C7A012C04D1146844F01F
:101D70000804146003E0146824F008041460CC7AAA
:101D8000012C04D1146844F00404146003E01468C6
:101D900024F0040414608C78A407CD7844EA056428
:101DA0000D7944EA05444D7944EA05540D886D1EC9
:101DB0002C43D461146824F001041460002300E073
:101DC0005B1C546804F001041CB14FF6FF74A3427D
:101DD000F6D1546804F001040CB1002000E00120A9
:101DE00030BD10B50021837A012202FA03F1AC4A1A
:101DF000126842F00102AA4B1A60A94A1C3212680A
:101E00008A43A74B1C331A60027BCAB9A44A0C321E
:101E100012688A43A24B0C331A604288C38842EA94
:101E200003439F4A4032847A42F8343002888388E0
:101E300042EA03439A4A4032847A02EBC402536076
:101E4000027B012A19D1964A0C3212680A43944B3C
:101E50000C331A604288038842EA0343904A4032B6
:101E6000847A42F83430C288838842EA03438C4A39
:101E70004032847A02EBC4025360C27A3AB9884A8B
:101E8000121D12688A43864B1B1D1A6006E0844AA5
:101E9000121D12680A43824B1B1D1A60028932B957
:101EA0007F4A143212688A437D4B14331A600289C8
:101EB000012A06D17A4A143212680A43784B143345
:101EC0001A60427B012A06D1754A1C3212680A4305
:101ED000734B1C331A60724A126822F00102704B75
:101EE0001A6010BD00218171C1710172417281724D
:101EF000C1728170C1700321017102214171012100
:101F0000018070476649096841F00101644A116027
:101F10001146096843F60E729143614A11601146F9
:101F2000096841EA002111601146096821F00101A8
:101F30001160704721B1026842F48032026003E010
:101F4000026822F4803202607047E1B1026842F018
:101F5000800202604FF4C272125842F480734FF450
:101F6000C27213504FF4CA72125842F480734FF485
:101F7000CA7213504FF4D272125842F480734FF465
:101F8000D27213501BE0026822F0800202604FF40C
:101F9000C272125822F480734FF4C27213504FF47D
:101FA000CA72125822F480734FF4CA7213504FF45D
:101FB000D272125822F480734FF4D27213507047C9
:101FC00010B502460020936803F08063B3F1806F80
:101FD00000D110E0936803F00063B3F1006F01D10A
:101FE000012008E0936803F08053B3F1805F01D1D2
:101FF000022000E00420042879D002F5C07303EB2E
:1020000000131B6803F0010402F5C07303EB001317
:102010001C600B7A7BB94B7A0C8843EA445302F577
:10202000C07404EB00142468234302F5C07404EB6D
:102030000014236010E00B7A4C6843EAC4034C7A26
:10204000234302F5C07404EB00142468234302F513
:10205000C07404EB001423608B7A03F00F038B72BF
:1020600002F5C07303EB00135B6823F00F0402F565
:10207000C07303EB00135C6002F5C07303EB001345
:102080005B688C7A234302F5C07404EB0014636030
:102090008B7B1C064B7B44EA034403E00064004056
:1020A000006600400B7B44EA0323CC7A234302F50D
:1020B000C07404EB0014A3608B7C1C064B7C44EAC8
:1020C00003440B7C44EA0323CC7B234302F5C07416
:1020D00004EB0014E36002F5C07303EB00131B680C
:1020E00043F0010402F5C07303EB00131C6010BD44
:1020F00010B50246002321B1012907D002290FD1D2
:1021000009E09068F94C00EA04030BE09068F84C91
:1021100000EA040306E09068F64C00EA040301E0DC
:10212000002300BF00BFF44C181BA34216D007DCED
:1021300083B16FF08060184470B1022818D111E0AB
:10214000B0F5007F10D0ED4C204448B1B0F5003F11
:102150000ED10BE002230DE000230BE0002309E089
:10216000002307E0012305E0012303E0012301E050
:10217000002300BF00BFD8B210BD21B1012907D094
:1021800002290FD109E0826842F0800282600AE0F1
:10219000826842F40042826005E0826842F40002F4
:1021A000826000E000BF00BF704710B500F5D87333
:1021B00003EB01131B6803F004031372137A53B982
:1021C00000F5D87303EB01131B6840F2FF7404EAB7
:1021D0005353136009E000F5D87303EB01131B6838
:1021E0006FF0604404EAD303536000F5D87303EB47
:1021F00001131B6803F00203537200F5D87303EB5D
:1022000001135B6803F00F03937200F5D87303EBBF
:1022100001135B681B0AD37400F5D87303EB011339
:102220009B68D37200F5D87303EB01139B681C0AFB
:10223000147300F5D87303EB01139B681C0C5473E3
:1022400000F5D87303EB01139B681B0E937300F525
:10225000D87303EB0113DB68D37300F5D87303EB7A
:102260000113DB681C0A147400F5D87303EB011327
:10227000DB681C0C547400F5D87303EB0113DB68A6
:102280001B0E937421B9C36843F02003C36003E0BD
:10229000036943F02003036110BD21B9C26842F015
:1022A0002002C26003E0026942F02002026170472E
:1022B0000246002019B9D36803F0030006E00129A3
:1022C00003D1136903F0030000E00020704710B54C
:1022D00002460B4600204FF6FF71BBB9146824F08C
:1022E000020444F00104146000E0491E546804F044
:1022F0000304012C01D00029F7D1546804F0030431
:10230000012C01D0002032E0012030E0012B13D15C
:10231000146824F00304146000E0491E546804F0BB
:1023200003040CB10029F8D1546804F003040CB183
:1023300000201CE001201AE0022B17D1146824F0C1
:10234000010444F00204146000E0491E546804F0E3
:102350000304022C01D00029F7D1546804F00304CF
:10236000022C01D0002002E0012000E0002010BD7E
:10237000014600200A6822F0010242F002020A60CF
:102380004A6802F00302022A00D101207047014688
:102390004FF6FF7200200B6823F002030B6000E091
:1023A000521E4B6803F00203022B01D1002AF7D121
:1023B0004B6803F00203022B00D001207047014656
:1023C00000208A6902F070007047014600208A6987
:1023D000100E7047014600208A69C2F3074070471B
:1023E0001AB143690B43436102E043698B43436184
:1023F000704710B50246002001F4700343B19369A1
:10240000C1F3130423400BB101202DE000202BE089
:1024100001F0807343B15368C1F3130423400BB13F
:10242000012021E000201FE001F0006343B1936828
:10243000C1F3130423400BB1012015E0002013E089
:1024400001F0007343B1D368C1F3130423400BB10F
:10245000012009E0002007E01369C1F313042340C1
:102460000BB1012000E0002010BD0022244B994256
:1024700002D10023836111E0C1F3130201F0007364
:102480000BB1C2600AE001F080630BB1026105E0AC
:1024900001F000630BB1826000E0426070470246C9
:1024A000002002EA01030BB1012000E00020704788
:1024B00070B504460D46002660692840002872D099
:1024C000B5F5807F69D01DDC082D42D006DC012DDA
:1024D0002DD0022D31D0042D7FD134E0102D3ED0EF
:1024E000202D42D0402D78D145E0000003000004AB
:1024F0000003000800000310000100080001FFF7BE
:102500007000F030B5F5004F61D009DCB5F5007F03
:102510004AD0B5F5806F4DD0B5F5006F5DD150E074
:10252000B5F5803F2DD0B5F5003F56D12FE0A0681E
:102530005549FFF7B4FF064651E0E0680321FFF775
:10254000AEFF06464BE0E0680821FFF7A8FF06460D
:1025500045E0E0681021FFF7A2FF06463FE0206952
:102560000321FFF79CFF064639E020690821FFF7A9
:1025700096FF064633E020691021FFF790FF0646DC
:102580002DE060680821FFF78AFF064627E06068B3
:102590001021FFF784FF064621E0A0690121FFF723
:1025A0007EFF06461BE01BE0A0690221FFF777FFD4
:1025B000064614E0A0690421FFF771FF06460EE00D
:1025C0000BE0A0697021FFF76AFF064607E060682C
:1025D0000421FFF764FF064601E0002600BF00E08B
:1025E0000026304670BDB1F5007F3AD00FDC2029BF
:1025F00028D006DC01291CD004291DD0082940D18F
:102600001DE0402921D0B1F5807F3AD126E0B1F517
:10261000004F31D006DCB1F5806F25D0B1F5006FE9
:102620002FD124E0B1F5803F12D0B1F5003F28D181
:1026300011E0154A826025E00822C26022E01022E3
:10264000C2601FE0082202611CE01022026119E052
:102650000822426016E01022426013E00422426029
:1026600010E0042242600DE0042242600AE00022F1
:1026700082610422426005E00022826104224260FD
:1026800000E000BF00BF70470101010010B5044623
:10269000FB48844209D101218803FFF7C1FA0021D8
:1026A0004FF48040FFF7BCFA32E0F648844209D18B
:1026B00001214804FFF7C1FA00214FF40030FFF771
:1026C000BCFA25E0F048844209D101218804FFF7D3
:1026D000B4FA00214FF48020FFF7AFFA18E0EB487E
:1026E000844209D10121C804FFF7A7FA00214FF461
:1026F0000020FFF7A2FA0BE0E548844208D101214F
:102700000805FFF79AFA00214FF48010FFF795FAB9
:1027100010BD2DE9F04786B005460E460024A246BE
:1027200000BFA1460027B08900B100BF2F462C8A08
:102730004CF6FF700440F08804432C82AC894EF6BE
:10274000F3100440B0883189084371890843044379
:10275000AC81AC8A4FF6FF400440B0890443AC82A0
:1027600001A8FFF757F9C648874202D1DDF810A04B
:1027700001E0DDF80CA0A88900F4004040B10AEBAC
:10278000CA0000EB0A1031684900B0FBF1F807E01D
:102790000AEBCA0000EB0A1031688900B0FBF1F8BF
:1027A0006420B8FBF0F004012009642101FB1089CA
:1027B000A88900F4004040B1322000EBC900B0FB12
:1027C000F1F000F00700044308E0322000EB0910AC
:1027D0006421B0FBF1F000F00F0004432C8106B03F
:1027E000BDE8F0874FF41651016000218180C1805F
:1027F00001810C21418100218181704710B5024681
:102800000020108A4FF2FF0318400B884C882343A6
:102810008C882343CC8823431843108210BD0021A9
:10282000018041808180C180704721B1828942F45A
:102830000052828104E082894DF6FF731A40828142
:102840007047F0B50346002400260025002040F61E
:102850006A17B94200D100BF1846C1F3421401F013
:102860001F06012707FA06F5012C01D10C3004E000
:10287000022C01D1103000E014301AB107682F4348
:10288000076002E00768AF430760F0BD1AB1838AB2
:102890000B43838202E0838A8B4383827047028AE0
:1028A0004FF6F0731A400282028A0A43028270478E
:1028B00082894FF2FF731A40828182890A438281A2
:1028C000704721B1828942F00202828104E082894C
:1028D0004FF6FD731A4082817047028A4FF6DF730C
:1028E0001A400282028A0A430282704721B1028A98
:1028F00042F48042028204E0028A4BF6FF731A40DF
:1029000002827047C1F308028280704701468888BE
:10291000C0F308007047818941F00101818170474F
:10292000028BD2B20283028B42EA012202837047F9
:10293000028B02F47F420283028B0A4302837047B8
:1029400021B1828A42F02002828204E0828A4FF61C
:10295000DF731A408282704721B1828A42F01002EE
:10296000828204E0828A4FF6EF731A4082827047B7
:1029700021B1828A42F00802828204E0828A4FF604
:10298000F7731A408282704721B1828942F4004273
:10299000828103E08289C2F30E028281704721B1F5
:1029A000828A42F40062828204E0828A4FF2FF73DC
:1029B0001A4082827047828A4FF6FB731A408282E5
:1029C000828A0A438282704721B1828A42F00202DF
:1029D000828204E0828A4FF6FD731A408282704739
:1029E00002460020B1F5007F00D100BF13880B40E4
:1029F0000BB1012000E00020704701F40072B2F535
:102A0000007F00D100BFCA430280704770B5024604
:102A1000002400230025002040F66A16B14200D1B0
:102A200000BFC1F3421501F01F03012606FA03F3AC
:102A3000012D02D19689334006E0022D02D1168A7B
:102A4000334001E0968A33400C12012606FA04F462
:102A50001688344013B10CB1012000E0002070BD95
:102A600010B50022002340F66A14A14200D100BF35
:102A70000A1201249440A3B2DC43048010BD00007C
:102A8000003801400044004000480040004C004035
:102A90000050004070477047704770477047754658
:102AA00000F028F8AE4605006946534620F00700BE
:102AB000854618B020B5FEF743FCBDE820404FF036
:102AC00000064FF000074FF000084FF0000B21F018
:102AD0000701AC46ACE8C009ACE8C009ACE8C009E5
:102AE000ACE8C0098D4670470446AFF3008020462D
:102AF000FDF765FB00487047FC0000200A0000005D
:102B000000000000242B000800000020340000001A
:102B10006C010008582B0008340000202C0700002E
:102B20008801000800A24A04000000000000000024
:102B3000010203040607080900000000000000006D
:102B40000000000000000102030401020304060764
:082B5000080902040608000058
:0400000508000131BD
:00000001FF
